:100000000C94DD020C9405030C9405030C94050379
:100010000C9405030C9405030C9405030C94050340
:100020000C9405030C9405030C9405030C94050330
:100030000C9405030C9405030C9405030C94050320
:100040000C943F110C9405030C946C0E0C949E0EB2
:100050000C9405030C9405030C9405030C94050300
:100060000C943F080C94050300000000003E5B4F19
:100070005B3E3E6B4F6B3E1C3E7C3E1C183C7E3C08
:10008000181C577D571C1C5E7F5E1C00183C180016
:10009000FFE7C3E7FF0018241800FFE7DBE7FF30A6
:1000A000483A060E2629792926407F050507407F14
:1000B00005253F5A3CE73C5A7F3E1C1C08081C1C87
:1000C0003E7F14227F22145F5F005F5F06097F017D
:1000D0007F006689956A606060606094A2FFA29468
:1000E00008047E040810207E201008082A1C080836
:1000F0001C2A08081E101010100C1E0C1E0C303884
:100100003E3830060E3E0E06000000000000005F84
:1001100000000007000700147F147F14242A7F2AA0
:100120001223130864623649562050000807030062
:10013000001C2241000041221C002A1C7F1C2A08AE
:10014000083E080800807030000808080808000011
:1001500060600020100804023E5149453E00427F85
:10016000400072494949462141494D331814127FD4
:100170001027454545393C4A494931412111090774
:100180003649494936464949291E000014000000F5
:1001900040340000000814224114141414140041C7
:1001A00022140802015909063E415D594E7C121184
:1001B000127C7F494949363E414141227F414141BC
:1001C0003E7F494949417F090909013E4141517337
:1001D0007F0808087F00417F41002040413F017FA8
:1001E000081422417F404040407F021C027F7F0470
:1001F00008107F3E4141413E7F090909063E4151B9
:10020000215E7F09192946264949493203017F01A8
:10021000033F4040403F1F2040201F3F4038403FA9
:10022000631408146303047804036159494D4300BF
:100230007F4141410204081020004141417F0402F6
:10024000010204404040404000030708002054548D
:1002500078407F284444383844444428384444286B
:100260007F385454541800087E090218A4A49C78BE
:100270007F0804047800447D40002040403D007F1A
:100280001028440000417F40007C047804787C08FA
:100290000404783844444438FC18242418182424CE
:1002A00018FC7C08040408485454542404043F44B3
:1002B000243C4040207C1C2040201C3C4030403CE2
:1002C00044281028444C9090907C4464544C440042
:1002D00008364100000077000000413608000201A6
:1002E0000204023C2623263C1EA1A161123A404092
:1002F000207A38545455592155557941225454780F
:1003000042215554784020545579400C1E527212A7
:100310003955555559395454545939555454580030
:1003200000457C410002457D420001457C407D1234
:1003300011127DF0282528F07C5455450020545496
:100340007C547C0A097F4932494949323A44444441
:100350003A324A4848303A4141217A3A424020787C
:10036000009DA0A07D3D4242423D3D4040403D3C7D
:1003700024FF2424487E4943662B2FFC2F2BFF09A2
:1003800029F620C0887E0903205454794100004496
:100390007D413048484A32384040227A007A0A0A81
:1003A000727D0D19317D2629292F282629292926F4
:1003B00030484D4020380808080808080808382F39
:1003C00010C8ACBA2F102834FA00007B00000814C3
:1003D0002A142222142A1408AA005500AAAA55AAEF
:1003E00055AA000000FF00101010FF00141414FFA5
:1003F000001010FF00FF1010F010F0141414FC0097
:100400001414F700FF0000FF00FF1414F404FC14A0
:100410001417101F10101F101F1414141F00101099
:1004200010F0000000001F101010101F101010100E
:10043000F010000000FF101010101010101010FF2E
:1004400010000000FF140000FF00FF00001F101745
:100450000000FC04F414141710171414F404F4002E
:1004600000FF00F714141414141414F700F71414F4
:1004700014171410101F101F141414F4141010F07B
:1004800010F000001F101F0000001F14000000FCEF
:10049000140000F010F01010FF10FF141414FF14DB
:1004A0001010101F00000000F010FFFFFFFFFFF012
:1004B000F0F0F0F0FFFFFF0000000000FFFF0F0F63
:1004C0000F0F0F3844443844FC4A4A4A347E020233
:1004D0000606027E027E0263554941633844443C6D
:1004E00004407E201E2006027E020299A5E7A599FF
:1004F0001C2A492A1C4C7201724C304A4D4D303036
:1005000048784830BC625A463D3E494949007E0120
:1005100001017E2A2A2A2A2A44445F444440514A3F
:10052000444040444A51400000FF0103E080FF0086
:100530000008086B6B083612362436060F090F06C2
:10054000000018180000001010003040FF010100EA
:100550001F01011E00191D1712003C3C3C3C00000D
:100560000000000000000800020100000304070072
:10057000000000000000000102040810204080017B
:1005800002040810200102040810200404040404DA
:100590000404040202020202020303030303030031
:1005A000000000250028002B000000000024002788
:1005B000002A000028042F0ACE0E11241FBECFEF00
:1005C000D8E0DEBFCDBF15E0A0E0B1E0E4E5FAE29F
:1005D00002C005900D92AA37B107D9F727E0AAE724
:1005E000B5E001C01D92A930B207E1F715E0CAEBF2
:1005F000D5E004C02297FE010E941F15C43BD1071D
:10060000C9F70E9430110C9428150C94000026E0C4
:1006100040E052EC61E070E083E696E00E940A0E52
:100620004CE362E08AE795E00C944E05CF93DF93AC
:1006300061E08AE795E00E940A0D61E070E08AE7D8
:1006400095E00E94100D40E050E060E070E08AE725
:1006500095E00E94040DC0E0D5E1CA30B9F0E09108
:100660007A05F0917B050190F081E02D6C2F8AE7EF
:1006700095E00995CC2351F08C2F6D2F0E94C71463
:10068000911104C08AE795E00E94580FCF5FC83AE5
:1006900021F78AE795E0DF91CF910C942A0762E079
:1006A0008AE795E00E940A0D61E070E08AE795E034
:1006B0000E94100D40E050E06AE070E08AE795E0AB
:1006C0000E94040D8AE795E00E94DD0460E075E079
:1006D0008AE795E00E945C0F8AE795E00E942A076E
:1006E0004FE060E08AE795E00E94530660ED77E016
:1006F00080E090E00E94AC118AE795E00E94270715
:1007000068EE73E080E090E00E94AC114FE060E0A2
:100710008AE795E00E94840660ED77E080E090E053
:100720000E94AC118AE795E00E94270768EE73E00B
:1007300080E090E00E94AC1147E060E08AE795E03D
:100740000E94B50660ED77E080E090E00E94AC1179
:1007500047E060E08AE795E00E94EE0660ED77E012
:1007600080E090E00E94AC118AE795E00C942707A6
:100770008AE795E00E94DD040E9416038AE795E06F
:100780000E942A0760ED77E080E090E00E94AC11C3
:100790008AE795E00E94DD040E944F0360ED77E058
:1007A00080E090E00E94AC118AE795E00E94DD04B1
:1007B00061E08AE795E00E940A0D61E070E08AE757
:1007C00095E00E94100D40E050E060E070E08AE7A4
:1007D00095E00E94040D67E075E08AE795E00E94CD
:1007E0005C0F41E050E060E070E08AE795E00E9435
:1007F000160D22E030E048ED5FE069E470E48AE73E
:1008000095E00E941B1162E08AE795E00E940A0DC4
:1008100061E070E08AE795E00E94100D65E175E007
:100820008AE795E00E944F0F20E130E04FEE5EEB4B
:100830006DEA7EED8AE795E00E941E108AE795E05A
:100840000E942A0760ED77E080E090E00C94AC1104
:100850006FEF8AE795E00C94C404CF92DF92EF9299
:10086000FF920F931F93CF93DF937C018B01EA01DB
:10087000690177FD80C00E941F0D081719070CF051
:100880007AC0D7FD78C0C7010E94230DC817D907C9
:100890000CF071C0C7010E941C0D823009F05FC0CE
:1008A000F701848195819C01201B310B8901015046
:1008B000110986819781FC01EC1BFD0BEF0121974B
:1008C0000BC0813049F4F701848195818C1B9D0B0D
:1008D000E8018C0101501109CA94CD28F9F4FE01F8
:1008E000D7FD379623E0F595E7952A95E1F7F6953C
:1008F000FE2FEE27F795E795E00FF11FE050FF4F31
:10090000CE0168E070E00E94D31421E030E001C025
:10091000220F8A95EAF78081822B1FC0FE01D7FD46
:10092000379683E0F595E7958A95E1F7F695FE2FE2
:10093000EE27F795E795E00FF11FE050FF4FCE014E
:1009400068E070E00E94D31421E030E001C0220F83
:100950008A95EAF720958081822380830CC08330BA
:1009600009F0AFCFF70186819781801B910B8E0133
:10097000EC012197B1CFDF91CF911F910F91FF90A3
:10098000EF90DF90CF9008951F93CF93DF93EC010A
:10099000162F40E450E060E870E00E94BA0B8CE152
:1009A00095E0998388838FEF888F8C8F8A8F898FCA
:1009B0001B8FDF91CF911F91089580E094E0E0E0DC
:1009C000F1E0DF019C011D9221503040E1F70895D4
:1009D000FC0188E090E030E8A78DB0A14C9126A101
:1009E000209524232C93A58DB68D25A1432F462336
:1009F00021F04C91422B4C9304C04C912095242320
:100A00002C93A78DB0A12C9146A1242B2C93369525
:100A1000019711F708951F93CF93DF93EC01162FE1
:100A2000888D8F3F09F1E9A1FAA180819FA1892BCF
:100A30008083EBA1FCA1908188A580958923808388
:100A4000E9A1FAA190818FA1809589238083CE01AD
:100A50000E94E804E9A1FAA180819FA1892B8083EB
:100A6000DF91CF911F9108958F89682F772767FDB8
:100A7000709581E196E00E94170A60E081E196E0BE
:100A80000E94C409612F81E196E00E94C40981E1BE
:100A900096E0DF91CF911F910C942C0A1F93CF9376
:100AA000DF93EC01162F4F8B888D8F3F09F468C0C0
:100AB00061E00E94381261E0898D0E94381261E085
:100AC0008A8D0E94381261E08C8D0E943812898DC7
:100AD000992787FD9095FC01E557FA4FE491F0E0E6
:100AE000EE0FFF1FE156FA4F2591349138A32F8F57
:100AF000FC01E958FA4F84918EA3888D992787FDD0
:100B00009095FC01E557FA4FE491F0E0EE0FFF1FDE
:100B1000E156FA4F259134913E8F2D8FFC01E95813
:100B2000FA4F84918DA38C8D992787FD9095FC01B8
:100B3000E557FA4FE491F0E0EE0FFF1FE156FA4F50
:100B4000259134913AA329A3FC01E958FA4F8491E5
:100B50008FA38A8D992787FD9095FC01E557FA4F61
:100B6000E491F0E0EE0FFF1FE156FA4F259134912A
:100B70003CA32BA3FC01E958FA4F849188A704C039
:100B800081E196E00E94030A61E08B8D0E94381299
:100B900061E08B8D0E94711261E070E080E090E076
:100BA0000E94AC1160E08B8D0E9471126AE070E0CF
:100BB00080E090E00E94AC1161E08B8D0E94711288
:100BC0006EEACE010E940B0565EDCE010E940B0579
:100BD00060E8CE010E940B0568EACE010E940B0579
:100BE0006FE3CE010E940B0563EDCE010E940B0561
:100BF00060E0CE010E940B0560E4CE010E940B056F
:100C00006DE8CE010E940B05113011F460E101C0C6
:100C100064E1CE010E940B0560E2CE010E940B054B
:100C200060E0CE010E940B0561EACE010E940B0537
:100C300068ECCE010E940B056AEDCE010E940B0507
:100C400062E1CE010E940B0561E8CE010E940B0516
:100C5000113011F46FE901C06FECCE010E940B0559
:100C600069EDCE010E940B05113011F462E201C062
:100C700061EFCE010E940B056BEDCE010E940B05CA
:100C800060E4CE010E940B0564EACE010E940B05D0
:100C900066EACE010E940B056FEACE01DF91CF918B
:100CA0001F910C940B05EF92FF921F93CF93DF934C
:100CB0001F92CDB7DEB77C01162F66E249830E94F2
:100CC0000B0560E0C7010E940B05612FC7010E9460
:100CD0000B0560E0C7010E940B054981642FC70125
:100CE0000E940B0561E0C7010E940B056FEFC70171
:100CF0000E940B056FE2C7010F90DF91CF911F910A
:100D0000FF90EF900C940B05EF92FF921F93CF93FF
:100D1000DF931F92CDB7DEB77C01162F67E24983C0
:100D20000E940B0560E0C7010E940B05612FC701FF
:100D30000E940B0560E0C7010E940B054981642FEA
:100D4000C7010E940B0561E0C7010E940B056FEF10
:100D5000C7010E940B056FE2C7010F90DF91CF9191
:100D60001F91FF90EF900C940B05EF92FF921F9351
:100D7000CF93DF931F92CDB7DEB77C01162F63EAC6
:100D800049830E940B0560E0C7010E940B0560E4E7
:100D9000C7010E940B0569E2C7010E940B0560E0D4
:100DA000C7010E940B05612FC7010E940B0560E07F
:100DB000C7010E940B054981642FC7010E940B05E2
:100DC00061E0C7010E940B056FE2C7010F90DF9140
:100DD000CF911F91FF90EF900C940B05EF92FF9233
:100DE0001F93CF93DF931F92CDB7DEB77C01162FF1
:100DF00063EA49830E940B0560E0C7010E940B056E
:100E000060E4C7010E940B056AE2C7010E940B055E
:100E100060E0C7010E940B05612FC7010E940B050E
:100E200060E0C7010E940B054981642FC7010E9441
:100E30000B0561E0C7010E940B056FE2C7010F902F
:100E4000DF91CF911F91FF90EF900C940B056EE214
:100E50000C940B05DF92EF92FF920F931F93CF93A9
:100E6000DF93EC0160E00E940B0560E1CE010E947F
:100E70000B0560E4CE010E940B05888D8F3F31F198
:100E8000E9A1FAA180819FA1892B8083EBA1FCA11C
:100E9000808198A5892B8083E9A1FAA190818FA1F7
:100EA00080958923808300E011E0F80161918F0132
:100EB000CE010E94E804F5E000301F07B1F7E9A178
:100EC000FAA180819FA1892B808337C0D090B80080
:100ED0008CE08093B80000E011E06F89772767FD10
:100EE000709581E196E00E94170AE0911106F09159
:100EF00012060190F081E02D60E481E196E0099511
:100F0000E12CF12CF801EE0DFF1D608181E196E0EE
:100F10000E94C4098FEFE81AF80AE0E1EE16F10426
:100F200089F781E196E00E942C0A005F1F4FF5E0EF
:100F300000301F0791F6D092B800DF91CF911F913A
:100F40000F91FF90EF90DF9008951092100681E0CE
:100F500080930E0610920D0661E082E10E947112EC
:100F600061E083E10E947112E9EBF0E080818E7F05
:100F7000808380818D7F808388E48093B80085E4BE
:100F80008093BC0008950F93413208F046C09091C1
:100F900010069111FCCF92E09093100600930E067C
:100FA0009FEF9093A3051092E8054093E705FB019E
:100FB00069EE75E0DB019A2F961B941718F4919156
:100FC0009D93F9CF10920F0690910F06880F892BF1
:100FD00080930F0680910D06813041F410920D062A
:100FE00080910F068093BB0085EC01C085EE809355
:100FF000BC00222321F0809110068230E1F3809121
:10100000A3058F3F61F08091A305803251F080915C
:10101000A305803341F483E007C081E005C080E090
:1010200003C082E001C084E00F910895613298F41A
:1010300020911006243089F46093C505FC0187ECEB
:1010400095E0DC012A2F281B261718F421912D93F7
:10105000F9CF80E0089581E0089582E0089585ED5C
:101060008093BC008091BC0084FDFCCF10921006E0
:10107000089585EC8093BC001092100608951F928D
:101080000F920FB60F9211242F933F934F935F93BC
:101090006F937F938F939F93AF93BF93EF93FF9340
:1010A0008091B900887F803609F49CC068F5883249
:1010B00009F45BC090F4803109F454C038F48823FB
:1010C00009F4F5C0883009F44DC0F5C0883109F441
:1010D0004CC0803209F45DC0EEC0803409F468C0B1
:1010E00048F4803309F455C0883309F0E4C0809394
:1010F000A305A8C0803509F44FC0883509F45DC048
:10110000883409F0D8C0D5C0883909F4C6C0A8F41D
:10111000883709F467C038F4883609F463C080372B
:1011200009F460C0C8C0883809F4B7C0803909F430
:101130005FC0803809F0BFC05BC0803B09F485C048
:1011400038F4803A09F466C0883A09F47EC0B3C026
:10115000803C09F4A6C0883C09F4A3C0883B09F48C
:1011600089C0A9C080910F0610C09091E8058091B8
:10117000E705981770F5E091E80581E08E0F809300
:10118000E805F0E0E751FA4F80818093BB0085ECE1
:1011900085C08093A3058DC0E091E80581E08E0FA6
:1011A0008093E8058091BB00F0E0E751FA4F80831F
:1011B0009091E8058091E7056DC0E091E80581E038
:1011C0008E0F8093E8058091BB00F0E0E751FA4F65
:1011D000808380910E0681116CC081E080930D06A2
:1011E00084EA60C083E0809310061092A405CFCFFC
:1011F0008091A405803208F050C0E091A40581E000
:101200008E0F8093A4058091BB00F0E0EB55FA4F60
:101210008083BDCF8091A405803230F4E091A40595
:10122000F0E0EB55FA4F10820E942F086091A40560
:1012300070E0E0910906F0910A0685EA95E00995CB
:101240001092A4050E94390836C084E080931006ED
:101250001092C6051092C505E0910B06F0910C06A0
:1012600009958091C505811105C081E08093C50570
:101270001092C705E091C60581E08E0F8093C605E8
:10128000F0E0E953FA4F80818093BB009091C6054E
:101290008091C505981708F47ACF85E88093BC0043
:1012A0000AC085EC8093BC001092100604C0109216
:1012B000A3050E942F08FF91EF91BF91AF919F91DD
:1012C0008F917F916F915F914F913F912F910F90EF
:1012D0000FBE0F901F9018958091410690E02091CD
:1012E0004206821B91090895209142068091410691
:1012F000281750F4E22FF0E0ED5BF94F808190E089
:101300002F5F2093420608958FEF9FEF0895E0919D
:10131000420680914106E81730F4F0E0ED5BF94FAA
:10132000808190E008958FEF9FEF08950895CF9208
:10133000DF92EF92FF920F931F93CF93DF937C0185
:10134000CB018A0120911D06222389F0EB016B015C
:10135000C40ED51ECC15DD0569F06991D701ED915C
:10136000FC910190F081E02DC7010995F3CF642F26
:101370000E941608C801DF91CF911F910F91FF9035
:10138000EF90DF90CF900895CF93DF931F92CDB76A
:10139000DEB7698320911D062223D1F020911E061D
:1013A000203240F021E030E0FC013383228380E0F2
:1013B00090E015C080911F06E82FF0E0E05EF94F45
:1013C000998190838F5F80931F0680931E0605C0CE
:1013D00061E0CE0101960E94160881E090E00F9036
:1013E000DF91CF910895FC011382128248EE53E001
:1013F00060E070E0448355836683778384E395E0FF
:1014000091838083089510924206109241061092B3
:101410001F0610921E060C94A50781E080931D06FE
:101420006093400610921F0610921E0608950C94B9
:101430000D0A0F93062F21E040911E0660E276E030
:10144000809140060E94C30710921F0610921E064C
:1014500010921D060F91089561E00C94190A81E124
:1014600096E00C94F3092F923F924F925F926F9205
:101470007F928F929F92AF92BF92CF92DF92EF9224
:10148000FF920F931F93CF93DF9300D000D0CDB77F
:10149000DEB74C017C836B836A015901C801870167
:1014A000AC014C195D0957FF03C051954195510995
:1014B00095016B817C81261B370B37FF03C031956B
:1014C0002195310922242394312C2417350714F057
:1014D000212C312C2114310459F03A2D2B2D5C0193
:1014E000832F922F3B812C81DC82CB82C32ED22E84
:1014F000AB81BC81AA16BB065CF43C2D2D2D6C0182
:10150000832F922F3B812C81BC82AB82A32EB22EE3
:101510002501EB81FC814E1A5F0A3C016C187D08A5
:1015200077FE03C0719461947108720157FE03C085
:10153000FFEFEF1AFF0AF594E794C816D9062CF4CA
:1015400021E030E03A83298324C06FEF7FEF7A8374
:1015500069831FC0D401ED91FC910480F581E02DD9
:10156000980121143104D9F04B815C81B601C4018A
:101570000995E618F708F7FE06C0E981FA81CE0E54
:10158000DF1EE40CF51C2B813C812F5F3F4F3C8319
:101590002B836B817C81A616B706E4F604C0A601F6
:1015A0006B817C81E4CF0F900F900F900F90DF91B3
:1015B000CF911F910F91FF90EF90DF90CF90BF9050
:1015C000AF909F908F907F906F905F904F903F90E3
:1015D0002F9008956F927F928F929F92AF92BF92B9
:1015E000CF92DF92EF92FF920F931F93CF93DF93EF
:1015F000EC015B016A0139014801E881F98102844B
:10160000F385E02D87010995E881F981A601480D50
:10161000591D415051090284F385E02D9301B50114
:10162000CE010995E881F9810084F185E02D9401CE
:10163000A601B501CE010995E881F981B501660DD4
:10164000771D615071090084F185E02D9401A60198
:10165000CE010995DF91CF911F910F91FF90EF90EF
:10166000DF90CF90BF90AF909F908F907F906F90C2
:101670000895EF92FF920F931F93DC01ED91FC917F
:10168000240F351F215031090680F781E02D7801A4
:1016900089019B0109951F910F91FF90EF9008958B
:1016A000EF92FF920F931F93DC01ED91FC91260FB7
:1016B000371F215031090680F781E02D78018A011A
:1016C00009951F910F91FF90EF9008956F927F926F
:1016D0008F929F92AF92BF92CF92DF92EF92FF9242
:1016E0000F931F93CF93DF935C014A016901380187
:1016F000EB01C60ED71ECC15DD0574F4D501ED91B6
:10170000FC910084F185E02D87019301A401BE01C5
:10171000C50109952196EFCFDF91CF911F910F91D0
:10172000FF90EF90DF90CF90BF90AF909F908F9001
:101730007F906F900895EF92FF920F931F93DC01BB
:10174000ED91FC9111971A960D911C911B9718968B
:101750002D913C9119970684F785E02D7B0140E09F
:1017600050E060E070E009951F910F91FF90EF90BD
:1017700008950895FC011382128284E495E0918318
:10178000808375836483578346837187608753871B
:101790004287158A158614861786168621E0248BC3
:1017A0008FEF9FEF938B828B918B808B268B08958D
:1017B0002F923F924F925F926F927F928F929F9261
:1017C000AF92BF92CF92DF92EF92FF920F931F934F
:1017D000CF93DF93CDB7DEB72C970FB6F894DEBF6B
:1017E0000FBECDBF9C878B873A0118870F83FA867F
:1017F000E986CD82DC0118968D919C911997681726
:1018000079070CF094C01A968D919C911B974817FC
:1018100059070CF08CC08C2C912CCB01B6E0CB9EE0
:10182000800D911D1124181619060CF080C0C401FA
:1018300053E0880F991F5A95E1F7860D971D1816EA
:1018400019060CF074C0F5E02F9F200111245B01F4
:101850006B011C82920128593F4F2901461A570AF1
:101860003C81353031F0F201EA0DFB1D44914B8390
:1018700001C01B827A82698213011E828B8180FFE4
:1018800013C0AB85BC85ED91FC91BD81B13031F4C5
:101890000480F581E02D2F81388519C00684F785F5
:1018A000E02DEF80F8841EC0E985FA852F81388508
:1018B000E217F307F9F0AB85BC85ED91FC91BD8192
:1018C000B13059F40480F581E02D29853A85A101D4
:1018D000B5018B859C8509950DC00684F785E02DA3
:1018E000E984FA848401940149815A81B6018B8587
:1018F0009C850995EB81E695EB83FE81FF5FFE8376
:1019000029813A81280D391D3A8329833FEF231A13
:10191000330AF83009F0B2CF4C814F5F4C83C80CCA
:10192000D91C8FEFA81AB80A463009F099CF2C9627
:101930000FB6F894DEBF0FBECDBFDF91CF911F91E0
:101940000F91FF90EF90DF90CF90BF90AF909F905E
:101950008F907F906F905F904F903F902F90089561
:10196000CF92EF92FF920F931F93CF93DF93EC01EF
:10197000262F6A3049F42C898E859F8538E0239F75
:10198000800D911D112432C06D30A1F1EA88FB88D1
:10199000088919894E855F856C857D85CC880E9474
:1019A000D80B2C89422F50E08C859D8536E0239FF3
:1019B000800D911D11249D878C872E892223D1F0C3
:1019C0006AEF64039001659F300D11246885798565
:1019D000260F371F281739076CF463E0440F551F93
:1019E0006A95E1F78E859F85840F951F9F878E8767
:1019F0001D861C8681E090E0DF91CF911F910F91B1
:101A0000FF90EF90CF900895FC017587648757870A
:101A100046870895611101C061E0FC01648B08955F
:101A2000FC01738B628B718B608B0895FC01718B51
:101A3000608B538B428B0895FC0185890895FC01CE
:101A4000808591850895FC01828593850895FC0128
:101A5000818D228D90E0805C9F4F821B91098F7356
:101A600099270895FC01918D828D981731F0828D10
:101A7000E80FF11D858D90E008958FEF9FEF089599
:101A8000FC01918D828D981761F0828DDF01A80F86
:101A9000B11D5D968C91928D9F5F9F73928F90E0A8
:101AA00008958FEF9FEF089584EC9EE0892B49F015
:101AB00080E090E0892B29F00E94C40E81110C94E3
:101AC00000000895FC01848DDF01A80FB11DA35A09
:101AD000BF4F2C91848D90E001968F739927848F4E
:101AE000A689B7892C93A089B1898C9180648C9345
:101AF000938D848D981306C00288F389E02D808130
:101B00008F7D80830895CF93DF93EC01888D8823A8
:101B1000C9F0EA89FB89808185FD05C0A889B9895A
:101B20008C9186FD0FC00FB607FCF5CF808185FF35
:101B3000F2CFA889B9898C9185FFEDCFCE010E94A3
:101B4000620DE7CFDF91CF910895CF92DF92FF92A0
:101B50000F931F93CF93DF931F92CDB7DEB76C0126
:101B600081E0D60158968C9358975B969C915B9731
:101B70005C968C915C97981307C05096ED91FC9100
:101B80005197808185FD2EC0F601038D10E00F5F17
:101B90001F4F0F731127F02EF601848DF81211C01C
:101BA0000FB607FCF9CFD6015096ED91FC915197F5
:101BB000808185FFF1CFC60169830E94620D698132
:101BC000EBCF838DE80FF11DE35AFF4F6083D60101
:101BD0005B960C935B975296ED91FC9153978081A5
:101BE00080620CC0D6015696ED91FC9157976083A8
:101BF0005096ED91FC91519780818064808381E0C3
:101C000090E00F90DF91CF911F910F91FF90DF90A7
:101C1000CF900895BF92CF92DF92EF92FF92CF9331
:101C2000DF93EC016A017B01B22EE889F98982E039
:101C30008083411581EE580761057105A1F060E0D0
:101C400079E08DE390E0A70196010E94E71421500E
:101C50003109410951095695479537952795211521
:101C600080E1380798F0E889F989108260E874E823
:101C70008EE190E0A70196010E94E71421503109FE
:101C8000410951095695479537952795EC85FD856E
:101C90003083EE85FF852083188EEC89FD89B08224
:101CA000EA89FB89808180618083EA89FB89808160
:101CB00088608083EA89FB89808180688083EA89E3
:101CC000FB8980818F7D8083DF91CF91FF90EF90A2
:101CD000DF90CF90BF9008951F920F920FB60F9292
:101CE00011242F938F939F93EF93FF93E0917306AB
:101CF000F09174068081E0917906F0917A0682FD78
:101D000012C0908180917C068F5F8F7320917D0639
:101D1000821751F0E0917C06F0E0ED59F94F958F74
:101D200080937C0601C08081FF91EF919F918F91FC
:101D30002F910F900FBE0F901F9018951F920F922A
:101D40000FB60F9211242F933F934F935F936F938E
:101D50007F938F939F93AF93BF93EF93FF9383E60C
:101D600096E00E94620DFF91EF91BF91AF919F911C
:101D70008F917F916F915F914F913F912F910F9034
:101D80000FBE0F901F90189583E696E00E94270DD6
:101D900021E0892B09F420E0822F08951092660635
:101DA0001092650688EE93E0A0E0B0E080936706AD
:101DB00090936806A0936906B0936A068CE595E057
:101DC000909364068093630685EC90E09093700690
:101DD00080936F0684EC90E0909372068093710676
:101DE00080EC90E0909374068093730681EC90E011
:101DF000909376068093750682EC90E09093780637
:101E00008093770686EC90E090937A06809379062B
:101E100010927C0610927D0610927E0610927F062C
:101E20000895CF92DF92EF92FF920F931F93CF937B
:101E3000DF936C017A01EB01E60EF71E00E010E083
:101E4000CE15DF0561F06991D601ED91FC9101900D
:101E5000F081E02DC6010995080F191FF1CFC801C7
:101E6000DF91CF911F910F91FF90EF90DF90CF9076
:101E700008956115710581F0DB010D900020E9F7EF
:101E8000AD0141505109461B570BDC01ED91FC910E
:101E90000280F381E02D099480E090E008950C9495
:101EA000390FDC01ED91FC910190F081E02D099456
:101EB00068E675E00C94390F0F931F93CF93DF936F
:101EC000EC010E94390F8C01CE010E94580F800F47
:101ED000911FDF91CF911F910F9108958F929F9243
:101EE000AF92BF92CF92DF92EF92FF920F931F9328
:101EF000CF93DF93CDB7DEB7A1970FB6F894DEBFCF
:101F00000FBECDBF7C01C42EE52FCB01D22E19A26E
:101F100021E02D1510F02AE0D22E8E010F5D1F4F0B
:101F20008D2C912CA12CB12C6C2D7E2FA501940110
:101F30000E94E7148C2DD29E8019112401501109A2
:101F40008A3014F4805D01C0895CF801808321151A
:101F500031054105510521F0C22EE32FCA01E4CF1E
:101F6000B801C7010E94390FA1960FB6F894DEBFE1
:101F70000FBECDBFDF91CF911F910F91FF90EF90DA
:101F8000DF90CF90BF90AF909F908F900895CF92A9
:101F9000DF92EF92FF920F931F93CF93DF93EC01A9
:101FA0006A017B012115310579F4E881F9810190FD
:101FB000F081E02D642FDF91CF911F910F91FF9061
:101FC000EF90DF90CF9009942A303105E9F477FF44
:101FD0001AC06DE20E94510F8C0144275527BA01A7
:101FE0004C195D096E097F092AE0CE010E946E0F2F
:101FF000800F911FDF91CF911F910F91FF90EF9074
:10200000DF90CF9008952AE0B701A601CE01DF91BD
:10201000CF911F910F91FF90EF90DF90CF900C9494
:102020006E0F2115310541F4DC01ED91FC91019019
:10203000F081E02D642F09940C946E0F0F931F9381
:10204000CF93DF93EC010E9411108C01CE010E940E
:10205000580F800F911FDF91CF911F910F9108951D
:102060004F925F926F927F928F929F92AF92BF92A8
:10207000CF92DF92EF92FF920F931F93CF93DF9354
:10208000EC016A017B01B22E9A01AB01C701B601D6
:102090000E94C314882319F06BE675E027C026015F
:1020A0003701E89477F82FEF3FEF4FE75FE7C30181
:1020B000B2010E94C31481110DC02FEF3FEF4FE713
:1020C0005FE7C301B2010E940D1318161CF46FE6FE
:1020D00075E00CC02FEF3FEF4FE75FE4C701B6019B
:1020E0000E945C141816ACF463E775E0CE01DF9132
:1020F000CF911F910F91FF90EF90DF90CF90BF9005
:10210000AF909F908F907F906F905F904F900C94C6
:10211000390F2FEF3FEF4FE75FECC701B6010E9489
:102120000D1387FDE1CF20E030E0A901C701B60122
:102130000E940D1387FF0AC06DE2CE010E94510F6D
:102140008C01F7FAF094F7F8F09402C000E010E088
:10215000A12C60E070E080E09FE3AB1441F020E050
:1021600030E040E251E40E941113A394F6CF9B01AA
:10217000AC01C701B6010E94A9126B017C010E944B
:102180007E132B013C010E94AA139B01AC01C701E5
:10219000B6010E94A8126B017C012AE0B301A201E2
:1021A000CE010E946E0F080F191FBB2039F067E7A0
:1021B00075E0CE010E94390F080F191F7B2C772084
:1021C00041F120E030E040E251E4C701B6010E9455
:1021D00060146B017C010E9479134B01AA2497FCC7
:1021E000A094BA2C2AE030E0B501A401CE010E94EF
:1021F000C70F080F191FC501B4010E94AC139B0142
:10220000AC01C701B6010E94A8126B017C017A944F
:10221000D6CFC801DF91CF911F910F91FF90EF9022
:10222000DF90CF90BF90AF909F908F907F906F90F6
:102230005F904F9008950F931F93CF93DF93EC011E
:102240000E9430108C01CE010E94580F800F911F08
:10225000DF91CF911F910F9108950E94231508954A
:102260000E94D4110E942F110E940703C4E5DDE0F3
:102270000E94B8032097E1F30E94540DF9CF1F92FA
:102280000F920FB60F9211242F933F938F939F932A
:10229000AF93BF938091010790910207A09103072C
:1022A000B09104073091000723E0230F2D3720F46D
:1022B0000196A11DB11D05C026E8230F0296A11DA0
:1022C000B11D209300078093010790930207A0930C
:1022D0000307B09304078091050790910607A0912A
:1022E0000707B09108070196A11DB11D809305074E
:1022F00090930607A0930707B0930807BF91AF918B
:102300009F918F913F912F910F900FBE0F901F9033
:1023100018953FB7F8948091050790910607A09112
:102320000707B091080726B5A89B05C02F3F19F0F5
:102330000196A11DB11D3FBF6627782F892F9A2FC7
:10234000620F711D811D911D42E0660F771F881F6E
:10235000991F4A95D1F70895CF92DF92EF92FF929D
:10236000CF93DF936B017C010E948911EB01C114B3
:10237000D104E104F10489F00E94A7120E9489119E
:102380006C1B7D0B683E734090F381E0C81AD10846
:10239000E108F108C851DC4FEACFDF91CF91FF90FF
:1023A000EF90DF90CF900895789484B5826084BDDB
:1023B00084B5816084BD85B5826085BD85B5816049
:1023C00085BDEEE6F0E0808181608083E1E8F0E0A9
:1023D0001082808182608083808181608083E0E8D8
:1023E000F0E0808181608083E1EBF0E080818460B7
:1023F0008083E0EBF0E0808181608083EAE7F0E0B9
:10240000808184608083808182608083808181601C
:1024100080838081806880831092C100089583301A
:1024200081F028F4813099F08230A1F0089587304E
:10243000A9F08830B9F08430D1F4809180008F7D8C
:1024400003C0809180008F7780938000089584B5C9
:102450008F7702C084B58F7D84BD08958091B000D0
:102460008F7703C08091B0008F7D8093B000089576
:10247000CF93DF9390E0FC01E958FA4F2491FC01DF
:10248000E557FA4F8491882349F190E0880F991F0E
:10249000FC01E755FA4FA591B49181569A4FFC0182
:1024A000C591D4919FB7611108C0F8948C91209583
:1024B00082238C93888182230AC0623051F4F8947D
:1024C0008C91322F309583238C938881822B888343
:1024D00004C0F8948C91822B8C939FBFDF91CF9195
:1024E00008950F931F93CF93DF931F92CDB7DEB75D
:1024F000282F30E0F901ED59FA4F8491F901E9589C
:10250000FA4F1491F901E557FA4F04910023C9F0ED
:10251000882321F069830E940F126981E02FF0E087
:10252000EE0FFF1FE156FA4FA591B4919FB7F894B3
:102530008C91611103C01095812301C0812B8C9374
:102540009FBF0F90DF91CF911F910F910895089534
:102550005058BB27AA270ED075C166D130F06BD179
:1025600020F031F49F3F11F41EF45BC10EF4E095AE
:10257000E7FB51C1E92F77D180F3BA1762077307E0
:102580008407950718F071F49EF58FC10EF4E0955D
:102590000B2EBA2FA02D0B01B90190010C01CA011D
:1025A000A0011124FF27591B99F0593F50F4503EC8
:1025B00068F11A16F040A22F232F342F4427585FBA
:1025C000F3CF469537952795A795F0405395C9F7D2
:1025D0007EF41F16BA0B620B730B840BBAF091508A
:1025E000A1F0FF0FBB1F661F771F881FC2F70EC029
:1025F000BA0F621F731F841F48F4879577956795FC
:10260000B795F7959E3F08F0B3CF9395880F08F0E4
:102610009927EE0F979587950895D9D008F481E012
:1026200008950CD00FC107D140F0FED030F021F456
:102630005F3F19F0F0C0511139C1F3C014D198F3C4
:102640009923C9F35523B1F3951B550BBB27AA2733
:1026500062177307840738F09F5F5F4F220F331FA5
:10266000441FAA1FA9F333D00E2E3AF0E0E830D071
:1026700091505040E695001CCAF729D0FE2F27D074
:10268000660F771F881FBB1F261737074807AB0742
:10269000B0E809F0BB0B802DBF01FF2793585F4FB7
:1026A0002AF09E3F510568F0B6C000C15F3FECF3D1
:1026B000983EDCF3869577956795B795F7959F5F7C
:1026C000C9F7880F911D9695879597F90895E1E0D0
:1026D000660F771F881FBB1F621773078407BA072F
:1026E00020F0621B730B840BBA0BEE1F88F7E0958A
:1026F000089504D06894B111D9C00895BCD088F071
:102700009F5790F0B92F9927B751A0F0D1F0660FDD
:10271000771F881F991F1AF0BA95C9F712C0B130F8
:1027200081F0C3D0B1E00895C0C0672F782F88270B
:10273000B85F39F0B93FCCF3869577956795B39537
:10274000D9F73EF490958095709561957F4F8F4FA6
:102750009F4F0895E89409C097FB3EF490958095AB
:10276000709561957F4F8F4F9F4F9923A9F0F92F57
:1027700096E9BB279395F695879577956795B795D5
:10278000F111F8CFFAF4BB0F11F460FF1BC06F5FBB
:102790007F4F8F4F9F4F16C0882311F096E911C0CD
:1027A000772321F09EE8872F762F05C0662371F0EE
:1027B00096E8862F70E060E02AF09A95660F771F02
:1027C000881FDAF7880F9695879597F90895990FDE
:1027D0000008550FAA0BE0E8FEEF16161706E807EB
:1027E000F907C0F012161306E407F50798F0621B0C
:1027F000730B840B950B39F40A2661F0232B242BE1
:10280000252B21F408950A2609F4A140A6958FEFFF
:10281000811D811D089597F99F6780E870E060E051
:1028200008959FEF80EC089500240A941616170669
:1028300018060906089500240A94121613061406B1
:1028400005060895092E0394000C11F4882352F014
:10285000BB0F40F4BF2B11F460FF04C06F5F7F4FCC
:102860008F4F9F4F089557FD9058440F551F59F0B3
:102870005F3F71F04795880F97FB991F61F09F3F6D
:1028800079F087950895121613061406551FF2CF96
:102890004695F1DF08C0161617061806991FF1CFE6
:1028A00086957105610508940895E894BB2766270D
:1028B0007727CB0197F908958ADF08F48FEF089501
:1028C0000BD0C0CFB1DF28F0B6DF18F0952309F0A8
:1028D000A2CFA7CF1124EACFC6DFA0F3959FD1F3F3
:1028E000950F50E0551F629FF001729FBB27F00DBE
:1028F000B11D639FAA27F00DB11DAA1F649F662713
:10290000B00DA11D661F829F2227B00DA11D621F61
:10291000739FB00DA11D621F839FA00D611D221F1B
:10292000749F3327A00D611D231F849F600D211DFF
:10293000822F762F6A2F11249F5750408AF0E1F0A2
:1029400088234AF0EE0FFF1FBB1F661F771F881FEB
:1029500091505040A9F79E3F510570F05CCFA6CF33
:102960005F3FECF3983EDCF3869577956795B795D6
:10297000F795E7959F5FC1F7FE2B880F911D969500
:10298000879597F9089523DF880B990B0895991B74
:1029900079E004C0991F961708F0961B881F7A9556
:1029A000C9F78095089597FB072E16F4009407D079
:1029B00077FD09D00E94091507FC05D03EF49095DB
:1029C00081959F4F0895709561957F4F0895A1E27D
:1029D0001A2EAA1BBB1BFD010DC0AA1FBB1FEE1F99
:1029E000FF1FA217B307E407F50720F0A21BB30BE4
:1029F000E40BF50B661F771F881F991F1A9469F760
:102A000060957095809590959B01AC01BD01CF01BB
:102A10000895AA1BBB1B51E107C0AA1FBB1FA61725
:102A2000B70710F0A61BB70B881F991F5A95A9F777
:102A300080959095BC01CD010895EE0FFF1F059084
:102A4000F491E02D099481E090E0F8940C9428151D
:042A5000F894FFCF28
:102A54000000000000000000000000000000000072
:102A64000000000000000000000000000000000062
:102A74000000000000000000000000000000000052
:102A840000000000000000000000000000000080C2
:102A94008080000000000000000000000000000032
:102AA400008080C0C00000000000000000000000A2
:102AB4000000000000000000000000000000000012
:102AC4000000000000000000000000000000000002
:102AD40000000000000000000000000000000000F2
:102AE4000000000080C0E0F0F8FCF8E00000000006
:102AF4000000000000000000000000000080808052
:102B0400808000808000000000808080808000FF42
:102B1400FFFF0000000080808080000080800000B3
:102B240080FFFF8080008080008080808000808023
:102B34000000000000808000008C8E84000080F87B
:102B4400F8F8800000000000000000000000000011
:102B5400F0F0F0F0F0F0F0F0F0F0F0F0E0E0C08031
:102B640000E0FCFEFFFFFF7FFFFFFFFFFF00000010
:102B74000000000000000000000000FEFFC701018B
:102B8400010183FFFF00007CFEC70101010183FFF7
:102B9400FFFF0038FEC78301010183C7FFFF000068
:102BA40001FFFF010100FFFF0701010100007FFF9A
:102BB40080000000FFFF7F0000FFFFFF000001FF17
:102BC400FFFF010000000000000000000000000002
:102BD400030F3F7F7FFFFFFFFFFFFFFFE7C7C78FA5
:102BE4008F9FBFFFFFC3C0F0FFFFFFFFFFFCFCFC94
:102BF400FCFCFCFCFCF8F8F0F0E0C000010303036B
:102C040003030103030000000001030303030101A4
:102C14000301000000010303030301010303000097
:102C24000003030000000303000000000000000193
:102C34000303030303010000000103010000000378
:102C4400030100000000000000000000000000007C
:102C540000000080C0E0F0F9FFFFFFFFFF3F1F0FFF
:102C640087C7F7FFFF1F1F3DFCF8F8F8F87C7DFFCE
:102C7400FFFFFFFFFFFFFF7F3F0F07003030000023
:102C84000000000000000000000000000000000040
:102C940000000000FEFEFC00000000000000000038
:102CA40000000000000000000000000000E0C00080
:102CB40000000000000000000000303000000000B0
:102CC4000000000000000000000000000000000000
:102CD40000C0FEFFFFFFFFFFFFFFFFFF7F7F3F1FDF
:102CE4000F071F7FFFFFF8F8FFFFFFFFFFFEF8E06D
:102CF400000000010000000000000000FEFE0000D3
:102D040000FCFEFC0C06060EFCF80000F0F81C0E9D
:102D14000606060CFFFFFF0000FEFE00000000FC9C
:102D2400FEFC00183C7E66E6CE84000006FFFF062B
:102D340006FCFEFC0C0606060000FEFE0000C0F8C1
:102D4400FC4E4646464E7C7840183C76E6CECC8017
:102D5400000000000000000000000000000000006F
:102D64000000000001070F1F1F3F3F3F3F1F0F03DD
:102D74000000000000000000000000000F0F000031
:102D8400000F0F0F000000000F0F000003070E0CD0
:102D940018180C060F0F0F0000010F0E0C180C0F63
:102DA400070100040E0C180C0F070000000F0F00A1
:102DB400000F0F0F0000000000000F0F00000007BD
:102DC400070C0C181C0C060600040E0C180C0F073C
:102DD40000000000000000000000000000000000EF
:102DE40000000000000000000000000000000000DF
:102DF40000000000000000000000000000000000CF
:102E040000000000000000000000000000000000BE
:102E140000000000000000000000000000000000AE
:102E2400000000000000000000000000000000009E
:102E3400000000000000000000000000000000008E
:102E4400000000000000000000000000000000007E
:102E54007363726F6C6C0048656C6C6F2C20776FB9
:102E6400726C64210030780000000000B00C110F77
:102E74002D04330A390B500BEA0A660B9B0BB90B72
:102E840000000000C40997096C09740987099609B0
:102E940000000000B00C110F2D11330A390B500B38
:102EA400EA0A660B9B0BB90B00000000A50D110F7D
:102EB400270D400D320D830D0D0A006E616E006901
:0A2EC4006E66006F7666002E0000B7
:00000001FF
